{
  "_format": "hh-sol-artifact-1",
  "contractName": "TokenVestingVII",
  "sourceName": "contracts/TokenVestingVII.sol",
  "abi": [
    {
      "inputs": [
        {
          "internalType": "address",
          "name": "tokenContractAddress",
          "type": "address"
        }
      ],
      "stateMutability": "nonpayable",
      "type": "constructor"
    },
    {
      "inputs": [
        {
          "internalType": "enum TokenVestingVII.StakeholderCategory",
          "name": "category",
          "type": "uint8"
        },
        {
          "internalType": "uint256",
          "name": "totalTokens",
          "type": "uint256"
        },
        {
          "internalType": "uint256",
          "name": "releaseStart",
          "type": "uint256"
        },
        {
          "internalType": "uint256",
          "name": "releaseEnd",
          "type": "uint256"
        },
        {
          "internalType": "uint256",
          "name": "numberOfInstallments",
          "type": "uint256"
        }
      ],
      "name": "createVestingSchedule",
      "outputs": [],
      "stateMutability": "nonpayable",
      "type": "function"
    },
    {
      "inputs": [],
      "name": "releaseTokens",
      "outputs": [],
      "stateMutability": "nonpayable",
      "type": "function"
    },
    {
      "inputs": [
        {
          "internalType": "address",
          "name": "beneficiary",
          "type": "address"
        },
        {
          "internalType": "enum TokenVestingVII.StakeholderCategory",
          "name": "category",
          "type": "uint8"
        }
      ],
      "name": "setCategorizedAddress",
      "outputs": [],
      "stateMutability": "nonpayable",
      "type": "function"
    },
    {
      "inputs": [
        {
          "internalType": "address[]",
          "name": "addresses",
          "type": "address[]"
        }
      ],
      "name": "whitelistAddresses",
      "outputs": [],
      "stateMutability": "nonpayable",
      "type": "function"
    }
  ],
  "bytecode": "0x60806040523480156200001157600080fd5b506040516200152c3803806200152c833981810160405281019062000037919062000129565b336000806101000a81548173ffffffffffffffffffffffffffffffffffffffff021916908373ffffffffffffffffffffffffffffffffffffffff16021790555080600160006101000a81548173ffffffffffffffffffffffffffffffffffffffff021916908373ffffffffffffffffffffffffffffffffffffffff160217905550506200015b565b600080fd5b600073ffffffffffffffffffffffffffffffffffffffff82169050919050565b6000620000f182620000c4565b9050919050565b6200010381620000e4565b81146200010f57600080fd5b50565b6000815190506200012381620000f8565b92915050565b600060208284031215620001425762000141620000bf565b5b6000620001528482850162000112565b91505092915050565b6113c1806200016b6000396000f3fe608060405234801561001057600080fd5b506004361061004c5760003560e01c80632bf0430414610051578063a1818dbf1461006d578063a96f866814610089578063d743a3e014610093575b600080fd5b61006b600480360381019061006691906109e5565b6100af565b005b61008760048036038101906100829190610a8d565b6101e2565b005b6100916103d3565b005b6100ad60048036038101906100a89190610b66565b61073d565b005b60008054906101000a900473ffffffffffffffffffffffffffffffffffffffff1673ffffffffffffffffffffffffffffffffffffffff163373ffffffffffffffffffffffffffffffffffffffff161461013d576040517f08c379a000000000000000000000000000000000000000000000000000000000815260040161013490610c29565b60405180910390fd5b60005b828290508110156101dd5760016002600085858581811061016457610163610c49565b5b90506020020160208101906101799190610c78565b73ffffffffffffffffffffffffffffffffffffffff1673ffffffffffffffffffffffffffffffffffffffff16815260200190815260200160002060006101000a81548160ff02191690831515021790555080806101d590610cd4565b915050610140565b505050565b60008054906101000a900473ffffffffffffffffffffffffffffffffffffffff1673ffffffffffffffffffffffffffffffffffffffff163373ffffffffffffffffffffffffffffffffffffffff1614610270576040517f08c379a000000000000000000000000000000000000000000000000000000000815260040161026790610c29565b60405180910390fd5b600084116102b3576040517f08c379a00000000000000000000000000000000000000000000000000000000081526004016102aa90610d68565b60405180910390fd5b8183106102f5576040517f08c379a00000000000000000000000000000000000000000000000000000000081526004016102ec90610dfa565b60405180910390fd5b60008111610338576040517f08c379a000000000000000000000000000000000000000000000000000000000815260040161032f90610e8c565b60405180910390fd5b6040518060a0016040528085815260200184815260200183815260200160008152602001828152506004600087600281111561037757610376610eac565b5b600281111561038957610388610eac565b5b815260200190815260200160002060008201518160000155602082015181600101556040820151816002015560608201518160030155608082015181600401559050505050505050565b600260003373ffffffffffffffffffffffffffffffffffffffff1673ffffffffffffffffffffffffffffffffffffffff16815260200190815260200160002060009054906101000a900460ff1661045f576040517f08c379a000000000000000000000000000000000000000000000000000000000815260040161045690610f4d565b60405180910390fd5b6000600360003373ffffffffffffffffffffffffffffffffffffffff1673ffffffffffffffffffffffffffffffffffffffff16815260200190815260200160002060009054906101000a900460ff169050600060028111156104c4576104c3610eac565b5b60028111156104d6576104d5610eac565b5b8160028111156104e9576104e8610eac565b5b03610529576040517f08c379a000000000000000000000000000000000000000000000000000000000815260040161052090610fdf565b60405180910390fd5b60006004600083600281111561054257610541610eac565b5b600281111561055457610553610eac565b5b8152602001908152602001600020905060008160000154116105ab576040517f08c379a00000000000000000000000000000000000000000000000000000000081526004016105a290611071565b60405180910390fd5b60006105f3826040518060a0016040529081600082015481526020016001820154815260200160028201548152602001600382015481526020016004820154815250506108a5565b905060008111610638576040517f08c379a000000000000000000000000000000000000000000000000000000000815260040161062f906110dd565b60405180910390fd5b8082600301600082825461064c91906110fd565b925050819055506000600160009054906101000a900473ffffffffffffffffffffffffffffffffffffffff1673ffffffffffffffffffffffffffffffffffffffff1663a9059cbb33846040518363ffffffff1660e01b81526004016106b292919061114f565b6020604051808303816000875af11580156106d1573d6000803e3d6000fd5b505050506040513d601f19601f820116820180604052508101906106f591906111b0565b905080610737576040517f08c379a000000000000000000000000000000000000000000000000000000000815260040161072e90611229565b60405180910390fd5b50505050565b60008054906101000a900473ffffffffffffffffffffffffffffffffffffffff1673ffffffffffffffffffffffffffffffffffffffff163373ffffffffffffffffffffffffffffffffffffffff16146107cb576040517f08c379a00000000000000000000000000000000000000000000000000000000081526004016107c290610c29565b60405180910390fd5b600073ffffffffffffffffffffffffffffffffffffffff168273ffffffffffffffffffffffffffffffffffffffff160361083a576040517f08c379a000000000000000000000000000000000000000000000000000000000815260040161083190611295565b60405180910390fd5b80600360008473ffffffffffffffffffffffffffffffffffffffff1673ffffffffffffffffffffffffffffffffffffffff16815260200190815260200160002060006101000a81548160ff0219169083600281111561089c5761089b610eac565b5b02179055505050565b60008042905082602001518110156108c1576000915050610971565b826040015181106108e857826060015183600001516108e091906112b5565b915050610971565b60008360200151826108fa91906112b5565b905060008460200151856040015161091291906112b5565b905060008186600001518461092791906112e9565b610931919061135a565b9050856080015181610943919061135a565b905085608001518161095591906112e9565b905085606001518161096791906112b5565b9050809450505050505b919050565b600080fd5b600080fd5b600080fd5b600080fd5b600080fd5b60008083601f8401126109a5576109a4610980565b5b8235905067ffffffffffffffff8111156109c2576109c1610985565b5b6020830191508360208202830111156109de576109dd61098a565b5b9250929050565b600080602083850312156109fc576109fb610976565b5b600083013567ffffffffffffffff811115610a1a57610a1961097b565b5b610a268582860161098f565b92509250509250929050565b60038110610a3f57600080fd5b50565b600081359050610a5181610a32565b92915050565b6000819050919050565b610a6a81610a57565b8114610a7557600080fd5b50565b600081359050610a8781610a61565b92915050565b600080600080600060a08688031215610aa957610aa8610976565b5b6000610ab788828901610a42565b9550506020610ac888828901610a78565b9450506040610ad988828901610a78565b9350506060610aea88828901610a78565b9250506080610afb88828901610a78565b9150509295509295909350565b600073ffffffffffffffffffffffffffffffffffffffff82169050919050565b6000610b3382610b08565b9050919050565b610b4381610b28565b8114610b4e57600080fd5b50565b600081359050610b6081610b3a565b92915050565b60008060408385031215610b7d57610b7c610976565b5b6000610b8b85828601610b51565b9250506020610b9c85828601610a42565b9150509250929050565b600082825260208201905092915050565b7f4f6e6c79207468652061646d696e2063616e20706572666f726d20746869732060008201527f7472616e73616374696f6e000000000000000000000000000000000000000000602082015250565b6000610c13602b83610ba6565b9150610c1e82610bb7565b604082019050919050565b60006020820190508181036000830152610c4281610c06565b9050919050565b7f4e487b7100000000000000000000000000000000000000000000000000000000600052603260045260246000fd5b600060208284031215610c8e57610c8d610976565b5b6000610c9c84828501610b51565b91505092915050565b7f4e487b7100000000000000000000000000000000000000000000000000000000600052601160045260246000fd5b6000610cdf82610a57565b91507fffffffffffffffffffffffffffffffffffffffffffffffffffffffffffffffff8203610d1157610d10610ca5565b5b600182019050919050565b7f546f6b656e73206d7573742062652067726561746572207468616e207a65726f600082015250565b6000610d52602083610ba6565b9150610d5d82610d1c565b602082019050919050565b60006020820190508181036000830152610d8181610d45565b9050919050565b7f52656c6561736520706572696f64206d75737420626520696e2074686520667560008201527f7475726500000000000000000000000000000000000000000000000000000000602082015250565b6000610de4602483610ba6565b9150610def82610d88565b604082019050919050565b60006020820190508181036000830152610e1381610dd7565b9050919050565b7f4e756d626572206f6620696e7374616c6c6d656e7473206d757374206265206760008201527f726561746572207468616e207a65726f00000000000000000000000000000000602082015250565b6000610e76603083610ba6565b9150610e8182610e1a565b604082019050919050565b60006020820190508181036000830152610ea581610e69565b9050919050565b7f4e487b7100000000000000000000000000000000000000000000000000000000600052602160045260246000fd5b7f4f6e6c792077686974656c6973746564206164647265737365732063616e207060008201527f6572666f726d2074686973207472616e73616374696f6e000000000000000000602082015250565b6000610f37603783610ba6565b9150610f4282610edb565b604082019050919050565b60006020820190508181036000830152610f6681610f2a565b9050919050565b7f4e6f207374616b65686f6c6465722063617465676f727920666f756e6420666f60008201527f7220746869732063616c6c657200000000000000000000000000000000000000602082015250565b6000610fc9602d83610ba6565b9150610fd482610f6d565b604082019050919050565b60006020820190508181036000830152610ff881610fbc565b9050919050565b7f4e6f2076657374696e67207363686564756c6520666f756e6420666f7220746860008201527f69732063616c6c65720000000000000000000000000000000000000000000000602082015250565b600061105b602983610ba6565b915061106682610fff565b604082019050919050565b6000602082019050818103600083015261108a8161104e565b9050919050565b7f4e6f20746f6b656e7320617661696c61626c6520666f722072656c6561736500600082015250565b60006110c7601f83610ba6565b91506110d282611091565b602082019050919050565b600060208201905081810360008301526110f6816110ba565b9050919050565b600061110882610a57565b915061111383610a57565b925082820190508082111561112b5761112a610ca5565b5b92915050565b61113a81610b28565b82525050565b61114981610a57565b82525050565b60006040820190506111646000830185611131565b6111716020830184611140565b9392505050565b60008115159050919050565b61118d81611178565b811461119857600080fd5b50565b6000815190506111aa81611184565b92915050565b6000602082840312156111c6576111c5610976565b5b60006111d48482850161119b565b91505092915050565b7f546f6b656e207472616e73666572206661696c65640000000000000000000000600082015250565b6000611213601583610ba6565b915061121e826111dd565b602082019050919050565b6000602082019050818103600083015261124281611206565b9050919050565b7f496e76616c69642062656e656669636961727920616464726573730000000000600082015250565b600061127f601b83610ba6565b915061128a82611249565b602082019050919050565b600060208201905081810360008301526112ae81611272565b9050919050565b60006112c082610a57565b91506112cb83610a57565b92508282039050818111156112e3576112e2610ca5565b5b92915050565b60006112f482610a57565b91506112ff83610a57565b925082820261130d81610a57565b9150828204841483151761132457611323610ca5565b5b5092915050565b7f4e487b7100000000000000000000000000000000000000000000000000000000600052601260045260246000fd5b600061136582610a57565b915061137083610a57565b9250826113805761137f61132b565b5b82820490509291505056fea2646970667358221220ade7659c9d950f0b2fecf380868463ef951353e697d2c10b9b2e11c5e98cef6964736f6c63430008130033",
  "linkReferences": {},
  "deployedLinkReferences": {}
}