{
  "_format": "hh-sol-artifact-1",
  "contractName": "TokenVesting",
  "sourceName": "contracts/TokenVesting.sol",
  "abi": [
    {
      "inputs": [
        {
          "internalType": "address",
          "name": "tokenContractAddress",
          "type": "address"
        }
      ],
      "stateMutability": "nonpayable",
      "type": "constructor"
    },
    {
      "inputs": [
        {
          "internalType": "enum TokenVesting.StakeholderCategory",
          "name": "category",
          "type": "uint8"
        },
        {
          "internalType": "uint256",
          "name": "totalTokens",
          "type": "uint256"
        },
        {
          "internalType": "uint256",
          "name": "releaseStart",
          "type": "uint256"
        },
        {
          "internalType": "uint256",
          "name": "releaseEnd",
          "type": "uint256"
        }
      ],
      "name": "createVestingSchedule",
      "outputs": [],
      "stateMutability": "nonpayable",
      "type": "function"
    },
    {
      "inputs": [],
      "name": "releaseTokens",
      "outputs": [],
      "stateMutability": "nonpayable",
      "type": "function"
    },
    {
      "inputs": [
        {
          "internalType": "address",
          "name": "beneficiary",
          "type": "address"
        },
        {
          "internalType": "enum TokenVesting.StakeholderCategory",
          "name": "category",
          "type": "uint8"
        }
      ],
      "name": "setCategorizedAddress",
      "outputs": [],
      "stateMutability": "nonpayable",
      "type": "function"
    },
    {
      "inputs": [
        {
          "internalType": "address[]",
          "name": "addresses",
          "type": "address[]"
        }
      ],
      "name": "whitelistAddresses",
      "outputs": [],
      "stateMutability": "nonpayable",
      "type": "function"
    }
  ],
  "bytecode": "0x60806040523480156200001157600080fd5b506040516200140738038062001407833981810160405281019062000037919062000129565b336000806101000a81548173ffffffffffffffffffffffffffffffffffffffff021916908373ffffffffffffffffffffffffffffffffffffffff16021790555080600160006101000a81548173ffffffffffffffffffffffffffffffffffffffff021916908373ffffffffffffffffffffffffffffffffffffffff160217905550506200015b565b600080fd5b600073ffffffffffffffffffffffffffffffffffffffff82169050919050565b6000620000f182620000c4565b9050919050565b6200010381620000e4565b81146200010f57600080fd5b50565b6000815190506200012381620000f8565b92915050565b600060208284031215620001425762000141620000bf565b5b6000620001528482850162000112565b91505092915050565b61129c806200016b6000396000f3fe608060405234801561001057600080fd5b506004361061004c5760003560e01c80631d7b9c6a146100515780632bf043041461006d578063a96f866814610089578063d743a3e014610093575b600080fd5b61006b6004803603810190610066919061095c565b6100af565b005b61008760048036038101906100829190610a28565b61024c565b005b61009161037f565b005b6100ad60048036038101906100a89190610ad3565b6106df565b005b60008054906101000a900473ffffffffffffffffffffffffffffffffffffffff1673ffffffffffffffffffffffffffffffffffffffff163373ffffffffffffffffffffffffffffffffffffffff161461013d576040517f08c379a000000000000000000000000000000000000000000000000000000000815260040161013490610b96565b60405180910390fd5b60008311610180576040517f08c379a000000000000000000000000000000000000000000000000000000000815260040161017790610c02565b60405180910390fd5b8082106101c2576040517f08c379a00000000000000000000000000000000000000000000000000000000081526004016101b990610c94565b60405180910390fd5b60405180608001604052808481526020018381526020018281526020016000815250600460008660028111156101fb576101fa610cb4565b5b600281111561020d5761020c610cb4565b5b81526020019081526020016000206000820151816000015560208201518160010155604082015181600201556060820151816003015590505050505050565b60008054906101000a900473ffffffffffffffffffffffffffffffffffffffff1673ffffffffffffffffffffffffffffffffffffffff163373ffffffffffffffffffffffffffffffffffffffff16146102da576040517f08c379a00000000000000000000000000000000000000000000000000000000081526004016102d190610b96565b60405180910390fd5b60005b8282905081101561037a5760016002600085858581811061030157610300610ce3565b5b90506020020160208101906103169190610d12565b73ffffffffffffffffffffffffffffffffffffffff1673ffffffffffffffffffffffffffffffffffffffff16815260200190815260200160002060006101000a81548160ff021916908315150217905550808061037290610d6e565b9150506102dd565b505050565b600260003373ffffffffffffffffffffffffffffffffffffffff1673ffffffffffffffffffffffffffffffffffffffff16815260200190815260200160002060009054906101000a900460ff1661040b576040517f08c379a000000000000000000000000000000000000000000000000000000000815260040161040290610e28565b60405180910390fd5b6000600360003373ffffffffffffffffffffffffffffffffffffffff1673ffffffffffffffffffffffffffffffffffffffff16815260200190815260200160002060009054906101000a900460ff169050600060028111156104705761046f610cb4565b5b600281111561048257610481610cb4565b5b81600281111561049557610494610cb4565b5b036104d5576040517f08c379a00000000000000000000000000000000000000000000000000000000081526004016104cc90610eba565b60405180910390fd5b6000600460008360028111156104ee576104ed610cb4565b5b6002811115610500576104ff610cb4565b5b815260200190815260200160002090506000816000015411610557576040517f08c379a000000000000000000000000000000000000000000000000000000000815260040161054e90610f4c565b60405180910390fd5b600061059582604051806080016040529081600082015481526020016001820154815260200160028201548152602001600382015481525050610847565b9050600081116105da576040517f08c379a00000000000000000000000000000000000000000000000000000000081526004016105d190610fb8565b60405180910390fd5b808260030160008282546105ee9190610fd8565b925050819055506000600160009054906101000a900473ffffffffffffffffffffffffffffffffffffffff1673ffffffffffffffffffffffffffffffffffffffff1663a9059cbb33846040518363ffffffff1660e01b815260040161065492919061102a565b6020604051808303816000875af1158015610673573d6000803e3d6000fd5b505050506040513d601f19601f82011682018060405250810190610697919061108b565b9050806106d9576040517f08c379a00000000000000000000000000000000000000000000000000000000081526004016106d090611104565b60405180910390fd5b50505050565b60008054906101000a900473ffffffffffffffffffffffffffffffffffffffff1673ffffffffffffffffffffffffffffffffffffffff163373ffffffffffffffffffffffffffffffffffffffff161461076d576040517f08c379a000000000000000000000000000000000000000000000000000000000815260040161076490610b96565b60405180910390fd5b600073ffffffffffffffffffffffffffffffffffffffff168273ffffffffffffffffffffffffffffffffffffffff16036107dc576040517f08c379a00000000000000000000000000000000000000000000000000000000081526004016107d390611170565b60405180910390fd5b80600360008473ffffffffffffffffffffffffffffffffffffffff1673ffffffffffffffffffffffffffffffffffffffff16815260200190815260200160002060006101000a81548160ff0219169083600281111561083e5761083d610cb4565b5b02179055505050565b60008042905082602001518110156108635760009150506108f2565b8260400151811061088a57826060015183600001516108829190611190565b9150506108f2565b600083602001518261089c9190611190565b90506000846020015185604001516108b49190611190565b905060008186600001516108c891906111f3565b90506000866060015182856108dd9190611224565b6108e79190611190565b905080955050505050505b919050565b600080fd5b600080fd5b6003811061090e57600080fd5b50565b60008135905061092081610901565b92915050565b6000819050919050565b61093981610926565b811461094457600080fd5b50565b60008135905061095681610930565b92915050565b60008060008060808587031215610976576109756108f7565b5b600061098487828801610911565b945050602061099587828801610947565b93505060406109a687828801610947565b92505060606109b787828801610947565b91505092959194509250565b600080fd5b600080fd5b600080fd5b60008083601f8401126109e8576109e76109c3565b5b8235905067ffffffffffffffff811115610a0557610a046109c8565b5b602083019150836020820283011115610a2157610a206109cd565b5b9250929050565b60008060208385031215610a3f57610a3e6108f7565b5b600083013567ffffffffffffffff811115610a5d57610a5c6108fc565b5b610a69858286016109d2565b92509250509250929050565b600073ffffffffffffffffffffffffffffffffffffffff82169050919050565b6000610aa082610a75565b9050919050565b610ab081610a95565b8114610abb57600080fd5b50565b600081359050610acd81610aa7565b92915050565b60008060408385031215610aea57610ae96108f7565b5b6000610af885828601610abe565b9250506020610b0985828601610911565b9150509250929050565b600082825260208201905092915050565b7f4f6e6c79207468652061646d696e2063616e20706572666f726d20746869732060008201527f7472616e73616374696f6e000000000000000000000000000000000000000000602082015250565b6000610b80602b83610b13565b9150610b8b82610b24565b604082019050919050565b60006020820190508181036000830152610baf81610b73565b9050919050565b7f546f6b656e73206d7573742062652067726561746572207468616e207a65726f600082015250565b6000610bec602083610b13565b9150610bf782610bb6565b602082019050919050565b60006020820190508181036000830152610c1b81610bdf565b9050919050565b7f52656c6561736520706572696f64206d75737420626520696e2074686520667560008201527f7475726500000000000000000000000000000000000000000000000000000000602082015250565b6000610c7e602483610b13565b9150610c8982610c22565b604082019050919050565b60006020820190508181036000830152610cad81610c71565b9050919050565b7f4e487b7100000000000000000000000000000000000000000000000000000000600052602160045260246000fd5b7f4e487b7100000000000000000000000000000000000000000000000000000000600052603260045260246000fd5b600060208284031215610d2857610d276108f7565b5b6000610d3684828501610abe565b91505092915050565b7f4e487b7100000000000000000000000000000000000000000000000000000000600052601160045260246000fd5b6000610d7982610926565b91507fffffffffffffffffffffffffffffffffffffffffffffffffffffffffffffffff8203610dab57610daa610d3f565b5b600182019050919050565b7f4f6e6c792077686974656c6973746564206164647265737365732063616e207060008201527f6572666f726d2074686973207472616e73616374696f6e000000000000000000602082015250565b6000610e12603783610b13565b9150610e1d82610db6565b604082019050919050565b60006020820190508181036000830152610e4181610e05565b9050919050565b7f4e6f207374616b65686f6c6465722063617465676f727920666f756e6420666f60008201527f7220746869732063616c6c657200000000000000000000000000000000000000602082015250565b6000610ea4602d83610b13565b9150610eaf82610e48565b604082019050919050565b60006020820190508181036000830152610ed381610e97565b9050919050565b7f4e6f2076657374696e67207363686564756c6520666f756e6420666f7220746860008201527f69732063616c6c65720000000000000000000000000000000000000000000000602082015250565b6000610f36602983610b13565b9150610f4182610eda565b604082019050919050565b60006020820190508181036000830152610f6581610f29565b9050919050565b7f4e6f20746f6b656e7320617661696c61626c6520666f722072656c6561736500600082015250565b6000610fa2601f83610b13565b9150610fad82610f6c565b602082019050919050565b60006020820190508181036000830152610fd181610f95565b9050919050565b6000610fe382610926565b9150610fee83610926565b925082820190508082111561100657611005610d3f565b5b92915050565b61101581610a95565b82525050565b61102481610926565b82525050565b600060408201905061103f600083018561100c565b61104c602083018461101b565b9392505050565b60008115159050919050565b61106881611053565b811461107357600080fd5b50565b6000815190506110858161105f565b92915050565b6000602082840312156110a1576110a06108f7565b5b60006110af84828501611076565b91505092915050565b7f546f6b656e207472616e73666572206661696c65640000000000000000000000600082015250565b60006110ee601583610b13565b91506110f9826110b8565b602082019050919050565b6000602082019050818103600083015261111d816110e1565b9050919050565b7f496e76616c69642062656e656669636961727920616464726573730000000000600082015250565b600061115a601b83610b13565b915061116582611124565b602082019050919050565b600060208201905081810360008301526111898161114d565b9050919050565b600061119b82610926565b91506111a683610926565b92508282039050818111156111be576111bd610d3f565b5b92915050565b7f4e487b7100000000000000000000000000000000000000000000000000000000600052601260045260246000fd5b60006111fe82610926565b915061120983610926565b925082611219576112186111c4565b5b828204905092915050565b600061122f82610926565b915061123a83610926565b925082820261124881610926565b9150828204841483151761125f5761125e610d3f565b5b509291505056fea2646970667358221220003dfc4f25aedd3f1b32247b764eb6ae52659aa611287c6fd72be781eadaebc764736f6c63430008130033",
  "linkReferences": {},
  "deployedLinkReferences": {}
}